:020000040810E2
:100000000000041005161008D50C1008090310088C
:10001000D90C1008DD0C1008E10C100800000000DD
:10002000000000000000000000000000E50C1008C7
:10003000E90C100800000000ED0C1008F10C10088D
:1000400055161008551610085516100855161008A4
:100050005516100855161008551610085516100894
:100060005516100855161008551610085516100884
:100070005516100855161008551610085516100874
:100080005516100855161008551610085516100864
:100090005516100855161008551610085516100854
:1000A0005516100855161008551610085516100844
:1000B0005516100855161008551610085516100834
:1000C0005516100855161008551610085516100824
:1000D0005516100855161008551610085516100814
:1000E0005516100855161008000000005516100887
:1000F00055161008551610085516100855161008F4
:1001000055161008551610085516100855161008E3
:1001100055161008551610085516100855161008D3
:1001200055161008551610085516100855161008C3
:1001300055161008551610085516100855161008B3
:1001400055161008551610080000000000000000A9
:100150005516100855161008551610085516100893
:100160005516100855161008551610085516100883
:1001700055161008551610085516100800000000F6
:100180005516100855161008551610085516100863
:100190005516100855161008551610085516100853
:1001A0005516100855161008551610085516100843
:1001B0005516100855161008551610085516100833
:1001C0005516100855161008551610085516100823
:1001D0005516100855161008551610085516100813
:1001E0005516100855161008551610085516100803
:1001F00055161008551610085516100855161008F3
:1002000055161008551610085516100855161008E2
:1002100055161008551610085516100855161008D2
:100220005516100855161008551610080000000045
:1002300055161008551610085516100855161008B2
:1002400055161008551610085516100855161008A2
:100250005516100855161008551610085516100892
:100260005516100855161008551610085516100882
:100270005516100855161008551610085516100872
:1002800055161008551610085516100800000000E5
:08029000551610085516100860
:1002980010B5054C237833B9044B13B10448AFF3B8
:1002A80000800123237010BDAC0000100000000086
:1002B80090301008084B10B51BB108490848AFF337
:1002C80000800848036803B910BD074B002BFBD01A
:1002D800BDE81040184700BF00000000B000001043
:1002E80090301008AC0000100000000060321008C8
:1002F80000000010AC000010AC000010DC00001082
:100308001EF0040F0CBFEFF30880EFF3098000F034
:10031800F1BC00BF034613F8012B002AFBD1181AC1
:100328000138704781F0004102E000BF83F00043CC
:1003380030B54FEA41044FEA430594EA050F08BF78
:1003480090EA020F1FBF54EA000C55EA020C7FEA3C
:10035800645C7FEA655C00F0E2804FEA5454D4EBB9
:100368005555B8BF6D420CDD2C4480EA020281EA83
:10037800030382EA000083EA010180EA020281EABB
:100388000303362D88BF30BD11F0004F4FEA01310D
:100398004FF4801C4CEA113102D0404261EB41011C
:1003A80013F0004F4FEA03334CEA133302D05242A2
:1003B80063EB430394EA050F00F0A780A4F101045E
:1003C800D5F1200E0DDB02FA0EFC22FA05F2801898
:1003D80041F1000103FA0EF2801843FA05F359417E
:1003E8000EE0A5F120050EF1200E012A03FA0EFCFD
:1003F80028BF4CF0020C43FA05F3C01851EBE37127
:1004080001F0004507D54FF0000EDCF1000C7EEB43
:1004180000006EEB0101B1F5801F1BD3B1F5001F81
:100428000CD349085FEA30004FEA3C0C04F10104A0
:100438004FEA445212F5800F80F09A80BCF1004FC9
:1004480008BF5FEA500C50F1000041EB045141EA4B
:10045800050130BD5FEA4C0C404141EB010111F44C
:10046800801FA4F10104E9D191F0000F04BF0146F7
:100478000020B1FA81F308BF2033A3F10B03B3F1D5
:1004880020020CDA0C3208DD02F1140CC2F10C0265
:1004980001FA0CF021FA02F10CE002F11402D8BFC3
:1004A800C2F1200C01FA02F120FA0CFCDCBF41EA8F
:1004B8000C019040E41AA2BF01EB0451294330BD5E
:1004C8006FEA04041F3C1CDA0C340EDC04F114043B
:1004D800C4F1200220FA04F001FA02F340EA030012
:1004E80021FA04F345EA030130BDC4F10C04C4F158
:1004F800200220FA02F001FA04F340EA0300294638
:1005080030BD21FA04F0294630BD94F0000F83F481
:10051800801306BF81F480110134013D4EE77FEA64
:10052800645C18BF7FEA655C29D094EA050F08BFB0
:1005380090EA020F05D054EA000C04BF1946104691
:1005480030BD91EA030F1EBF0021002030BD5FEAD5
:10055800545C05D14000494128BF41F0004130BDFD
:1005680014F580043CBF01F5801130BD01F0004551
:1005780045F0FE4141F470014FF0000030BD7FEAC4
:10058800645C1ABF194610467FEA655C1CBF0B46BF
:10059800024650EA013406BF52EA033591EA030FD6
:1005A80041F4002130BD00BF90F0000F04BF0021CE
:1005B800704730B54FF4806404F132044FF0000501
:1005C8004FF0000150E700BF90F0000F04BF00217A
:1005D800704730B54FF4806404F1320410F00045E0
:1005E80048BF40424FF000013EE700BF42004FEADB
:1005F800E2014FEA31014FEA02701FBF12F07F4358
:1006080093F07F4F81F06051704792F0000F14BF54
:1006180093F07F4F704730B54FF4607401F0004598
:1006280021F0004120E700BF50EA010208BF7047EF
:1006380030B54FF000050AE050EA010208BF7047E4
:1006480030B511F0004502D5404261EB41014FF44D
:10065800806404F132045FEA915C3FF4DCAE4FF051
:1006680003025FEADC0C18BF03325FEADC0C18BF38
:10067800033202EBDC02C2F1200300FA03FC20FA89
:1006880002F001FA03FE40EA0E0021FA02F11444D6
:10069800C1E600BF70B54FF0FF0C4CF4E06C1CEAEB
:1006A80011541DBF1CEA135594EA0C0F95EA0C0F60
:1006B80000F0DEF82C4481EA030621EA4C5123EAD3
:1006C8004C5350EA013518BF52EA033541F4801102
:1006D80043F4801338D0A0FB02CE4FF00005E1FBB5
:1006E80002E506F00042E0FB03E54FF00006E1FBFF
:1006F80003569CF0000F18BF4EF0010EA4F1FF0442
:10070800B6F5007F64F5407404D25FEA4E0E6D4181
:1007180046EB060642EAC62141EA55514FEAC52092
:1007280040EA5E504FEACE2EB4F1FD0C88BFBCF50E
:10073800E06F1ED8BEF1004F08BF5FEA500E50F1BF
:10074800000041EB045170BD06F0004646EA010185
:1007580040EA020081EA0301B4EB5C04C2BFD4EBB7
:100768000C0541EA045170BD41F480114FF0000EB0
:10077800013C00F3AB8014F1360FDEBF002001F01E
:10078800004170BDC4F10004203C35DA0C341BDC98
:1007980004F11404C4F1200500FA05F320FA04F06A
:1007A80001FA05F240EA020001F0004221F000419E
:1007B80010EBD37021FA04F642EB06015EEA430E11
:1007C80008BF20EAD37070BDC4F10C04C4F1200541
:1007D80000FA04F320FA05F001FA04F240EA0200F4
:1007E80001F0004110EBD37041F100015EEA430EC5
:1007F80008BF20EAD37070BDC4F1200500FA05F2E5
:100808004EEA020E20FA04F301FA05F243EA020363
:1008180021FA04F001F0004121FA04F220EA020072
:1008280000EBD3705EEA430E08BF20EAD37070BDB8
:1008380094F0000F0FD101F00046400041EB010198
:1008480011F4801F08BF013CF7D041EA060195F07A
:10085800000F18BF704703F00046520043EB030334
:1008680013F4801F08BF013DF7D043EA0603704721
:1008780094EA0C0F0CEA135518BF95EA0C0F0CD02C
:1008880050EA410618BF52EA4306D1D181EA030172
:1008980001F000414FF0000070BD50EA410606BF6C
:1008A8001046194652EA430619D094EA0C0F02D1B1
:1008B80050EA013613D195EA0C0F05D152EA0336F6
:1008C8001CBF104619460AD181EA030101F0004114
:1008D80041F0FE4141F470014FF0000070BD41F05D
:1008E800FE4141F4780170BD70B54FF0FF0C4CF437
:1008F800E06C1CEA11541DBF1CEA135594EA0C0F56
:1009080095EA0C0F00F0A7F8A4EB050481EA030EA2
:1009180052EA03354FEA013100F088804FEA033389
:100928004FF0805545EA131343EA12634FEA022257
:1009380045EA111545EA10654FEA00260EF0004118
:100948009D4208BF964244F1FD0404F5407402D26A
:100958005B084FEA3202B61A65EB03055B084FEAFB
:1009680032024FF480104FF4002CB6EB020E75EBF8
:10097800030E22BFB61A754640EA0C005B084FEA20
:100988003202B6EB020E75EB030E22BFB61A75469D
:1009980040EA5C005B084FEA3202B6EB020E75EBE8
:1009A800030E22BFB61A754640EA9C005B084FEA60
:1009B8003202B6EB020E75EB030E22BFB61A75466D
:1009C80040EADC0055EA060E18D04FEA051545EA5C
:1009D80016754FEA06164FEAC30343EA52734FEA05
:1009E800C2025FEA1C1CC0D111F4801F0BD141EA7E
:1009F80000014FF000004FF0004CB6E711F4801FE3
:100A080004BF01430020B4F1FD0C88BFBCF5E06FC2
:100A18003FF6AFAEB5EB030C04BFB6EB020C5FEAD2
:100A2800500C50F1000041EB045170BD0EF0004E27
:100A38004EEA113114EB5C04C2BFD4EB0C0541EA59
:100A4800045170BD41F480114FF0000E013C90E656
:100A580045EA060E8DE60CEA135594EA0C0F08BF1A
:100A680095EA0C0F3FF43BAF94EA0C0F0AD150EA19
:100A780001347FF434AF95EA0C0F7FF425AF1046AC
:100A880019462CE795EA0C0F06D152EA03353FF4D4
:100A9800FDAE1046194622E750EA410618BF52EA51
:100AA80043067FF4C5AE50EA41047FF40DAF52EA25
:100AB80043057FF4EBAE12E74FF0FF3C06E000BFC2
:100AC8004FF0010C02E000BF4FF0010C4DF804CDCF
:100AD8004FEA410C7FEA6C5C4FEA430C18BF7FEA8F
:100AE8006C5C1BD001B050EA410C0CBF52EA430CBD
:100AF80091EA030F02BF90EA020F0020704710F13D
:100B0800000F91EA030F58BF994208BF90422CBFCB
:100B1800D8176FEAE37040F0010070474FEA410CC4
:100B28007FEA6C5C02D150EA013C07D14FEA430CE2
:100B38007FEA6C5CD6D152EA033CD3D05DF8040B53
:100B4800704700BF8446104662468C461946634685
:100B580000E000BF01B5FFF7B7FF002848BF10F15C
:100B6800000F01BD4DF808EDFFF7F4FF0CBF0120A1
:100B780000205DF808FB00BF4DF808EDFFF7EAFF1D
:100B880034BF012000205DF808FB00BF4DF808EDD8
:100B9800FFF7E0FF94BF012000205DF808FB00BFCD
:100BA8004DF808EDFFF7CEFF94BF012000205DF857
:100BB80008FB00BF4DF808EDFFF7C4FF34BF012064
:100BC80000205DF808FB00BF4FEA410C7FEA6C5C2F
:100BD80002D150EA013C0AD14FEA430C7FEA6C5C2F
:100BE80002D152EA033C02D14FF0000070474FF0A7
:100BF800010070474FEA410212F5001215D211D5D3
:100C08006FF47873B3EB625212D94FEAC12343F001
:100C1800004343EA505311F0004F23FA02F018BF83
:100C2800404270474FF00000704750EA013005D14C
:100C380011F0004008BF6FF0004070474FF000000F
:100C4800704700BF00B583B01A4B1A4AD2F8E020AB
:100C580042F00072C3F8E020164BD3F8E03003F0FE
:100C680000730193019B012000F0BAFC00F090FB97
:100C780001220221002000F0DDFA0F4B1B6803F06F
:100C8800F0031B09072B08D10C4B0C4AD2F804219E
:100C980042F00102C3F8042107E0084B074AD2F8E2
:100CA800142142F00102C3F8142100F087F830BF84
:100CB800FDE700BF0044025800ED00E00064025860
:100CC80082B001900091FEE700BF704700BF7047F7
:100CD800FEE700BFFEE700BFFEE700BF00BF7047AA
:100CE80000BF704700BF704708B500F00DF900BF9E
:100CF80008BD00BF8AB00190019B1B680993019B46
:100D080004331B680893019B08331B680793019BF6
:100D18000C331B680693019B10331B680593019BDA
:100D280014331B680493019B18331B680393019BBE
:100D38001C331B680293FEE7094B094AD2F8882046
:100D480042F47002C3F88820054B054A126942F044
:100D580004021A61024B4FF001629A6000BF7047AB
:100D680000ED00E000B585B00190124B1B68002B28
:100D780002D1104B104A1A600E4B1B6803930D4B9F
:100D88001A68019B1A446B469A4207D900F064FC22
:100D980003460C221A604FF0FF3306E0054B1A6831
:100DA800019B1A44034B1A60039B184605B05DF873
:100DB80004FB00BFC8000010E000001000B583B0BD
:100DC800264B264AD2F8D82042F48042C3F8D820CD
:100DD800224BD3F8D83003F480430193019B204A77
:100DE8001F4B1B6823F47F2323F4706343F40143F0
:100DF80013601B4B1A4A126842F001021A60032062
:100E080000F08AFB00F08EF80246144B9B6903F44D
:100E180070631B0A1349CB5C03F01F03DA40124BC3
:100E28001A60114B1A680D4B9B6903F00F030D49AB
:100E3800CB5C03F01F03DA400C4B1A600F2000F064
:100E480017F80346002B01D0012302E0FFF73CFF0F
:100E58000023184603B05DF804FB00BF00440258A5
:100E68000044024020311008000000100400001067
:100E780000B583B00190214B1B78002B01D10123D1
:100E880038E000F09FFB0346032B11D11C4B1A6876
:100E98001A4B1B784FF47A71B1FBF3F3B2FBF3F3FF
:100EA800184600F083FB0346002B14D0012321E0F1
:100EB80000F0A6F90246114B1B784FF47A71B1FB8A
:100EC800F3F3B2FBF3F3184600F070FB0346002B74
:100ED80001D001230EE0019B0F2B0AD800220199B3
:100EE8004FF0FF3000F038FB064B019A1A600023E0
:100EF80000E00123184603B05DF804FB0C00001065
:100F08000000001008000010044B1B781A46044B20
:100F18001B681A44024B1A6000BF70470C0000108F
:100F2800D400001088B0AE4B1B6903F03803182BAF
:100F380000F24F8101A252F823F000BFA90F100858
:100F4800DB111008DB111008DB111008DB11100889
:100F5800DB111008DB111008DB111008CF0F100887
:100F6800DB111008DB111008DB111008DB11100869
:100F7800DB111008DB111008DB111008D50F100861
:100F8800DB111008DB111008DB111008DB11100849
:100F9800DB111008DB111008DB111008DB0F10083B
:100FA8008F4B1B6803F02003002B09D08C4B1B6868
:100FB80003F01803DB088B4A22FA03F306930BE1CC
:100FC800884B069308E1884B069305E1874B069307
:100FD80002E1834B9B6A03F003030593804B9B6AF2
:100FE80003F47C731B0904937D4BDB6A03F0010354
:100FF80003937B4B5A6B4FF6F8731340DB08039A45
:1010080002FB03F307EE903AF8EE677ACDED027A29
:10101800049B002B00F0DA80059B012B5AD0012B92
:1010280002D3022B78D099E06D4B1B6803F02003A4
:10103800002B2DD06A4B1B6803F01803DB08694AA4
:1010480022FA03F30193019B07EE903AF8EE676AE0
:10105800049B07EE903AF8EE677A86EEA77A604B23
:101068001B6BC3F3080307EE903AF8EE676ADDEDF1
:10107800025A9FED5F6AC5EE867A76EEA76AF7EEAA
:10108800007A76EEA77A67EE277ACDED077A87E0C1
:10109800049B07EE903AF8EE677ADFED566A86EE23
:1010A800A77A4F4B1B6BC3F3080307EE903AF8EE91
:1010B800676ADDED025A9FED4E6AC5EE867A76EED6
:1010C800A76AF7EE007A76EEA77A67EE277ACDED73
:1010D800077A65E0049B07EE903AF8EE677ADFED51
:1010E800466A86EEA77A3E4B1B6BC3F3080307EEEE
:1010F800903AF8EE676ADDED025A9FED3D6AC5EE5B
:10110800867A76EEA76AF7EE007A76EEA77A67EE29
:10111800277ACDED077A43E0049B07EE903AF8EE84
:10112800677ADFED366A86EEA77A2D4B1B6BC3F321
:10113800080307EE903AF8EE676ADDED025A9FED74
:101148002C6AC5EE867A76EEA76AF7EE007A76EE16
:10115800A77A67EE277ACDED077A21E0049B07EEA0
:10116800903AF8EE677ADFED246A86EEA77A1C4B90
:101178001B6BC3F3080307EE903AF8EE676ADDEDE0
:10118800025A9FED1B6AC5EE867A76EEA76AF7EEDD
:10119800007A76EEA77A67EE277ACDED077A00BF58
:1011A8000F4B1B6B03F47E435B0A01330093009BD8
:1011B80007EE903AB8EE677ADDED076AC6EE877AF1
:1011C800FCEEE77A17EE903A069305E000230693C3
:1011D80002E0054B069300BF069B184608B070470F
:1011E800004402580090D00300093D0040787D017A
:1011F800000000460024744C0024744A20BCBE4BF6
:1012080008B500F0D1F80246074B9B6903F00F03BD
:101218000649CB5C03F01F03DA40054B1A60044B08
:101228001B68184608BD00BF00440258203110084A
:101238000400001000B585B003900B4601928DF8AC
:101248000B30039B002B07D0039B012B04D040F2EB
:1012580012214C48FFF734FD9DF80B30012B08D0C4
:101268009DF80B30022B04D040F213214548FFF7BC
:1012780027FD019B002B0AD0019B012B07D0019B66
:10128800022B04D04FF405713E48FFF719FD3E4B81
:101298003D4A126822F00101039A0A431A60019B31
:1012A800002B2DD100F08EF90346032B04D040F219
:1012B8001D213448FFF704FD334B334A126922F0ED
:1012C80001021A61304B304A526922F001025A6118
:1012D8002E4B2E4A126942F004021A61BFF34F8F57
:1012E800BFF36F8F9DF80B30012B01D130BF00E0A9
:1012F80020BF264B254A126922F004021A613CE0FD
:10130800019B012B2DD1204B1F4A126922F00202AA
:101318001A6100F057F90346012B04D040F243212B
:101328001848FFF7CDFC184B174A526922F0020201
:101338005A61164B154A126942F004021A61BFF34A
:101348004F8FBFF36F8F9DF80B30012B01D130BF4A
:1013580000E020BF0D4B0D4A126922F004021A6109
:101368000BE0094B084A126922F004021A61064B85
:10137800054A526922F004025A6100BF05B05DF8BF
:1013880004FB00BFA83010080048025800ED00E038
:1013980008B500F017F90346032B01D120BF01E07F
:1013A80040BF20BF00BF08BD08B5FFF7BBFD024620
:1013B800074B9B6903F470631B0A0649CB5C03F077
:1013C8001F03DA40044B1A60034B1B68184608BD1C
:1013D80000440258203110080000001084B0019029
:1013E800019B03F0070303930B4BDB680293029AFC
:1013F8004FF6FF0313400293039B1A02029B134309
:1014080043F0BF6343F400330293034B029ADA605C
:1014180000BF04B0704700BF00ED00E0034BDB687D
:1014280003F4E0631B0A1846704700BF00ED00E0B4
:1014380082B003460091ADF80630BDF90630002BA6
:101448000ADB0D49BDF90630009AD2B21201D2B2B8
:101458000B4483F800230BE00849BDF8063003F07D
:101468000F03043B009AD2B21201D2B20B441A768F
:1014780000BF02B0704700BF00E100E000ED00E0EF
:1014880088B0039002910192039B03F0070307932E
:10149800079BC3F10703042B28BF04230693079B6C
:1014A8000433062B02D9079B033B00E00023059376
:1014B8000122069B02FA03F35A1E029B1A40059B5F
:1014C8009A400121059B01FA03F3591E019B0B4029
:1014D8001343184608B0704700B583B00190019BCC
:1014E800013BB3F1807F01D301230FE0094B019A3F
:1014F800013A5A600F214FF0FF30FFF799FF054B73
:1015080000229A60034B07221A600023184603B092
:101518005DF804FB10E000E000B583B00190019B8A
:10152800072B0FD0019B062B0CD0019B052B09D054
:10153800019B042B06D0019B032B03D09221054865
:10154800FFF7BEFB0198FFF749FF00BF03B05DF846
:1015580004FB00BFE430100800B587B003460291D1
:101568000192ADF80E30019B0F2B03D9AA210E482A
:10157800FFF7A6FB029B0F2B03D9AB210A48FFF705
:101588009FFBFFF74BFF0590019A02990598FFF71B
:1015980077FF0246BDF90E3011461846FFF748FF9F
:1015A80000BF07B05DF804FBE430100800B583B055
:1015B80001900198FFF790FF0346184603B05DF8C5
:1015C80004FB00BF054B1B6803F0F0031B09072B46
:1015D80001D1032300E001231846704700ED00E025
:1015E80082B00190044B044A1168019A0A431A60B8
:1015F80000BF02B0704700BF10650258DFF834D052
:10160800002103E00C4B5B58435004310B480C4B52
:1016180042189A42F6D30B4A02E0002342F8043BF0
:10162800094B9A42F9D3FFF787FB00F01BF8FFF745
:1016380009FB704700000410603210080000001019
:10164800AC000010AC000010DC000010014B1A6860
:10165800D2B2FEE704ED00E0014B1868704700BF06
:101668007000001070B50E4B0E4CE41AA410002543
:101678001E46A54204D056F8253098470135F8E7AC
:1016880001F002FD084C094BE41AA41000251E467F
:10169800A54204D056F8253098470135F8E770BDC3
:1016A80058321008583210085C32100858321008A6
:1016B80002440346934202D003F8011BFAE770473D
:1016C8002DE9FF4755EC104B0D9FDDF830A0002D9C
:1016D8000E4691461946B8BF22462B4627F02007EA
:1016E800BBBF05F100431D4600232D23B8BF144698
:1016F800462F0B7003D0452F03D1013601E003219B
:1017080000E0022103AB019302AB0093324653463B
:1017180045EC104B00F0ACFB472F804602D119F086
:10172800010F28D0462F08EB060911D198F8003090
:10173800302B0AD10022002320462946FFF712FA4F
:1017480018B9C6F10106CAF80060DAF80030994401
:101758000022002320462946FFF704FA08B9302260
:1017680002E0CDF80C9006E0039B994503D9591C7B
:1017780003911A70F8E7039B0E9AC8EB03034046DF
:10178800136004B0BDE8F08773B503460029B8BFFD
:10179800494203F8022BB4BF2D222B22092942709B
:1017A80019DD0DF1070216460A2591FBF5F405FB34
:1017B80014113031092C02F8011D2146F5DC3031B5
:1017C800541E02F8011CB4421A460AD214F8012B1E
:1017D80003F8012BF7E730241A46214402F8024B9C
:1017E8005970101A02B070BD2DE9F04F8DB00C463B
:1017F800DDF8588016461F46054601F0D9F80368FB
:1018080004931846FEF786FD00230A93D8F80030A3
:101818000590073323F0070303F1080294F818A092
:10182800D4F800B0C8F80020D3E90023C4E9122393
:10183800D4E9128929F000430793CDF818804FF0B6
:10184800FF32A64BDDE90601FFF7BEF9A0B94FF05C
:10185800FF32A24BDDE90601FFF798F960B90022D3
:10186800002340464946FFF787F910B12D2384F835
:1018780043309B4B9B4A0AE042464B46404649460A
:10188800FFF7A2F9002800F09081974B974ABAF128
:10189800470F8CBF9046984603232BF00402236120
:1018A80022604FF000093BE0BAF1670F00F0858134
:1018B800BAF1470F00F08181002303930AAB02932A
:1018C80009AB009349EC108B0DF123032260CDF88E
:1018D80004A061682846FFF7F3FE0AF0DF03472BF0
:1018E800804600F07F81BAF1650F099900F288817E
:1018F8000139524604F150000991FFF745FF0A9A51
:101908008318012A8146236100F377812268D10771
:1019180000F173819DF8233013B12D2384F84330EF
:10192800009733460BAA2146284600F09BF9013060
:1019380002D14FF0FF3091E123685A0501D42369A1
:1019480065E0BAF1650F40F2D58000220023D4E9A2
:101958001201FFF707F978B30123654A3146284693
:10196800B8470130E5D00A9B099A9A420BDB2368F5
:10197800D80708D423689B0740F111814FF000086D
:1019880004F1190906E1059B049A31462846B8472F
:101998000130CED04FF0000804F11A090A9B013B30
:1019A8009845E7DA01234A4631462846B8470130C8
:1019B800BFD008F10108F1E7099B002B29DC0123BE
:1019C8004B4A31462846B8470130B2D0099B23B963
:1019D8000A9B13B92368D907CCD5059B049A3146CD
:1019E8002846B8470130A4D04FF0000904F11A0A7C
:1019F800099B5B42994509DA01235246314628463C
:101A0800B847013095D009F10109F1E70A9B424630
:101A1800A7E00A9AA36D9A42A8BF1A46002A9146DF
:101A280006DC4FF0000A29EAE97904F11A0B11E003
:101A38001346314642462846B8470130F1D178E787
:101A480001235A4631462846B84701303FF471AF62
:101A58000AF1010AA36DC9EB03029245F0DB08EB1A
:101A68000309099A0A9B9A420FDB2368DA070CD408
:101A78000A9B099A9844C9EB08089B1A9845A8BF7D
:101A88009846B8F1000F08DC0FE0059B049A314630
:101A98002846B8470130EBD14BE743464A46314622
:101AA8002846B84701303FF444AF4FF0000928EA10
:101AB800E87804F11A0A09E001235246314628461B
:101AC800B84701303FF435AF09F10109099A0A9B7B
:101AD8009B1AC8EB03039945EEDB4BE7FFFFEF7F4B
:101AE80032311008363110083A3110083E311008EA
:101AF800423110080A9A012A01DCDB0738D5012394
:101B0800424631462846B84701303FF412AF059B9C
:101B1800049A31462846B84701303FF40AAF0022FC
:101B28000023D4E91201FFF71DF820B14FF0000897
:101B380004F11A0A0EE00A9B08F10102013B19E0C0
:101B48000123524631462846B84701303FF4F1AEEA
:101B580008F101080A9B013B9845F1DB4B4604F16B
:101B6800500231462846B84701307FF403AFE0E61B
:101B78000123424631462846B8470130EED1D8E61F
:101B880001234A4631462846B84701303FF4D1AED2
:101B980008F10108E3680B9A9B1A9845F0DBE068A6
:101BA8000B9B9842B8BF184658E061684B1C4BF431
:101BB80080627FF479AE062301E011B901236360E6
:101BC8007AE6002303930AAB029309AB009349EC2E
:101BD800108B2260CDF804A00DF123032846FFF7EF
:101BE8006FFD8046099BD81C02DB626893421DDDAD
:101BF800AAF1020A5FFA8AFA75E60133236189E6D7
:101C0800BAF1660F14D10029636807DD216113B9A1
:101C18002268D2071DD501330B4419E013B9226895
:101C2800D00701D5023313E0012311E04FF0670A12
:101C3800099B0A9A934205DB22682361D10708D5DC
:101C4800013305E0002BD4BFC3F102030123134481
:101C58002361099BA3654FF000095BE60DB0BDE861
:101C6800F08F00BF2DE9F04791461F460A698B683F
:101C7800DDF820809342B8BF1346C9F8003091F8C8
:101C8800432006460C4612B10133C9F800302368D8
:101C9800990642BFD9F800300233C9F800302568E8
:101CA80015F0060510D104F1190A07E00123524680
:101CB80039463046C04701301AD00135E368D9F8B3
:101CC80000209B1A9D42F1DB94F8433022680033D0
:101CD80018BF012392060FD5E1185A1C302081F84D
:101CE8004300224494F8451082F84310023303E07D
:101CF8004FF0FF30BDE8F08704F143023946304623
:101D0800C0470130F4D02268D9F80050E36802F0E7
:101D18000602042A08BF5D1B2269A3680CBF25EAD6
:101D2800E57500259342C4BF9B1AED184FF00009D2
:101D38001A344D4509D00123224639463046C0475A
:101D48000130D5D009F10109F3E70020BDE8F0879B
:101D58002DE9F74F03690C699C42804600F38380A4
:101D6800013C01F114074FEA840E00F1140657F8FC
:101D7800245006EB0E030193013556F82430B3FBCB
:101D8800F5F507EB0E09002D39D04FF0000A38465B
:101D9800B446D34650F8042B93B205FB03A34FEA8D
:101DA800134A9BB2C3EB0B03120CBCF800B005FB43
:101DB80002A213FA8BF34FEA124A1FFA82FBDCF8ED
:101DC8000020CBEB124202EB23429BB243EA0243D0
:101DD80081454FEA224B4CF8043BDBD256F80E30D3
:101DE8006BB9019B043B9E421A4602D3C8F81040C7
:101DF80005E01268043B002AF8D1013CF3E74046AD
:101E080000F0FBFF00282CDB013530464FF0000EB8
:101E180057F8041BD0F800C08AB2C2EB0E03090CB5
:101E280013FA8CF3C1EB1C4202EB23429BB243EA48
:101E38000243B9454FEA224E40F8043BE8D256F82F
:101E4800242006EB840362B9043B9E421A4602D35F
:101E5800C8F8104005E01268043B002AF8D1013C9C
:101E6800F3E7284600E0002003B0BDE8F08F00004B
:101E78002DE9F04F59EC108B97B0456A06918246D0
:101E880009921093209CCDE9008945B9102000F0F3
:101E980093FDCAF82400456085600560C560DAF8DE
:101EA8002430196859B15A684A60012393408B60FD
:101EB800504600F0C9FDDAF8243000221A60019B70
:101EC8009F4A002BBFBF01232360019B23F00043DF
:101ED800B8BF0193019FA4BF0023236027F00043EC
:101EE8001B0D1B0593421DD1109A42F20F7313600C
:101EF800009B43B9934A944BC7F31300002814BFBF
:101F08001846104600E09048219B002B00F04A85B7
:101F1800C37813B100F1080300E0C31C219A1360D1
:101F280000F040BDDDE90045002200232046294697
:101F3800FEF718FE804658B1109A01231360219BC2
:101F4800002B00F0228581481860013800F02ABD76
:101F580014AA15A945EC104B504600F0C9FFC7F369
:101F68000A5602905EB1C5F3130343F07F51204631
:101F780041F44011A6F2FF36CDF844801DE0159BD0
:101F8800149E1E4406F23243202B0ADD009A06F204
:101F98001240C3F1400322FA00F007FA03F3184392
:101FA80004E0C3F12000009B03FA00F0FEF7FCFAFE
:101FB8000123A1F1F871013E11930022644BFEF751
:101FC800B5F959A3D3E90023FEF764FB58A3D3E975
:101FD8000023FEF7ADF9044630460D46FEF7F4FA45
:101FE80055A3D3E90023FEF755FB02460B462046CE
:101FF8002946FEF79DF904460D46FEF7FBFD002233
:102008008346002320462946FEF7B6FD58B15846B8
:10201800FEF7DAFA02460B4620462946FEF7A2FDED
:1020280008B90BF1FF3BBBF1160F0DD8494901EB7D
:10203800CB01DDE90023D1E90001FEF7BBFD30B19A
:102048000BF1FF3B002300E001230D9300E00D900E
:10205800149B9E1B731E059343BFC3F10009002305
:1020680005934FF00009BBF1000F07DB059BCDF886
:1020780030B05B4405930023079306E0CBF10003DF
:1020880007930023CBEB09090C93069B092B27D850
:10209800052BC4BF043B0693069BA3F10203CCBFE8
:1020A80000250125032B20D8DFE803F0060E0204E3
:1020B800012302E0012308E000230893099B002B79
:1020C8001CDD039398461EE000230893099B5B449C
:1020D80003F1010803934346012BB8BF012312E023
:1020E800012500230693089501E0012308934FF08A
:1020F800FF33039398460022122303E0012303933E
:1021080098461A460992DAF82440002262600421AF
:1021180001F114029A421FD86268013262604900D4
:10212800F6E700BFAFF3008061436F63A787D23F34
:10213800B3C8608B288AC63FFB799F501344D33FAE
:102148000000F07F443110084D3110084331100869
:102158000000F83F903110086168504600F03FFCDD
:10216800DAF8243020601B680493B8F10E0F00F2EF
:102178005D81002D00F05A819DED007BBBF1000FC1
:102188008DED0E7B31DDA04A0BF00F0302EBC3038C
:1021980093ED007B4FEA2B14E2068DED0A7B0CD5FC
:1021A8009A4BDDE90E01D3E90823FEF79DFB04F005
:1021B8000F04CDE90001032600E00226934D6CB11F
:1021C800E30708D5DDE90A01D5E90023FEF762FA3D
:1021D800CDE90A01013664100835F0E7DDE90A2384
:1021E800DDE90001FEF780FB20E0CBF1000404B339
:1021F800854B864D04F00F0203EBC203D3E900239D
:10220800DDE90E01FEF746FACDE9000124110023AD
:10221800022654B1E70705D5D5E90023FEF73AFAB7
:102228000136012364100835F3E71BB1CDE900013D
:1022380000E002260D9BEBB1DDE900450022744B5E
:1022480020462946FEF798FCA0B1B8F1000F11D03E
:10225800039B002B40F3E6800BF1FF330A93002227
:102268006C4B20462946FEF715FA0136CDE90001E8
:10227800039F02E0CDF828B047463046FEF7A4F9A0
:10228800DDE90023FEF706FA0022634BFEF750F85B
:102298000446A1F15075CFB90022604BDDE9000179
:1022A800FEF744F822462B46CDE90001FEF782FCF2
:1022B800002840F04182224605F10043DDE9000193
:1022C800FEF75AFC002840F02E82ABE0089A4E4BED
:1022D800791E002A4AD003EBC103D3E9002300206A
:1022E8004F49FEF701FB22462B46FEF71FF8049CD8
:1022F80005460E46DDE90001FEF77CFC1290FEF76C
:1023080063F902460B46DDE90001FEF70FF8129B60
:10231800303304F8013B2A463346CDE90001FEF785
:102328002BFC002840F02183DDE9002300203849F8
:10233800FDF7FCFF2A463346FEF71EFC002840F056
:10234800D280049BE31ABB426CDA0022314B284648
:102358003146FEF79FF9002205460E462D4BDDE972
:102368000001FEF797F9CDE90001C3E703EBC101CE
:1023780022462B46D1E90001FEF78CF9049BCDE9F2
:102388001201DC191D46DDE90001FEF733FC0646A3
:10239800FEF71AF9303602460B46DDE90001FDF773
:1023A800C5FF05F8016BAC42CDE900014FF0000212
:1023B80023D11B4BDDE91201FDF7BAFF02460B469C
:1023C800DDE90001FEF7F6FB002840F08C80DDE92E
:1023D800122300201249FDF7A9FF02460B46DDE94A
:1023E8000001FEF7C9FBE8B114F8013C302B04F1F9
:1023F800FF3240F0BA821446F6E7064BFEF74AF978
:10240800CDE90001BFE700BF90311008683110081E
:102418000000F03F0000244000001C400000144071
:102428000000E03FDDE90E34CDE90034159B002BB8
:102438007CDBBBF10E0F79DC8F4B03EBCB03D3E9CD
:102448000067099B002B14DAB8F1000F11DC40F08B
:102458006C810022894B30463946FEF71BF9DDE9CD
:102468000023FEF79DFB45464646002840F05F8165
:1024780066E1049C32463B46DDE90001FEF734FA8A
:10248800FEF7B8FB0546FEF79FF832463B46FEF7D7
:1024980001F90B460246DDE90001FDF747FF05F1AA
:1024A800300E04F801EB049BC3EB040EF045CDE9B4
:1024B80000012ED102460B46FDF73AFF80468946B9
:1024C80002460B4630463946FEF756FB78B9424677
:1024D8004B4630463946FEF745FB002800F0478258
:1024E800E90704D443E2DDF828B000E01C4614F8FC
:1024F800012C392A04F1FF3307D1049A9A42F5D105
:10250800049930220BF1010B0A701A7801321A7003
:102518002DE200225A4BFEF7BDF800220023CDE938
:102528000001FEF71FFB0028A4D020E2089A002A29
:102538002DD0069A012A0ADC119A12B103F233430C
:1025480002E0149BC3F13603079D4C4615E0079B38
:1025580008F1FF35AB42BFBF079B0795EA1A0C9BF2
:10256800B7BF9B185D1B0C930025B8F1000FB9BFCE
:10257800C8EB090400234C464346059A01211A4436
:1025880050469944059200F0FEFA064602E0079D7F
:10259800089E4C465CB1059B002B08DDA342059ABA
:1025A800A8BF2346C3EB0909E41AD31A0593079B6E
:1025B800002B1DDD089BABB185B131462A4650463C
:1025C80000F07CFB029A01460646504600F0E4FA09
:1025D80002990746504600F037FA0297079B5A1BA4
:1025E80006D000E0079A0299504600F067FB029077
:1025F8000121504600F0C7FA0C9B05465BB31A460A
:102608000146504600F05AFB069B012B054618DC94
:10261800009B83B9019BC3F3130373B9019B23F098
:1026280000473F0D3F054FB1059B013309F10109F3
:102638000593012702E0002700E0009F0C9B73B17F
:1026480000E000272B6905EB8303186900F04EFAB8
:10265800C0F1200004E0069B012BD9DD0C9F01206E
:10266800059B184410F01F000ED0C0F12003042B66
:1026780008DDC0F11C0008E090311008000014408B
:102688000000244006D018461C30059B03448144B2
:1026980004440593B9F1000F05DD4A4602995046F6
:1026A80000F05AFB0290059B002B05DD29461A46CF
:1026B800504600F051FB05460D9BEBB129460298A8
:1026C80000F09BFB002817DA00230A2202995046E3
:1026D80000F0D1F9089B02900BF1FF3B002B00F0B2
:1026E8005881002331460A22504600F0C4F9039B62
:1026F800002B064637DC33E0B8F1000F2ADC069BD6
:10270800022B27DDCDF80C80039B83B929460522CF
:10271800504600F0B0F901460546029800F06DFBFE
:1027280000280DDC03E03D4600E000252E46099B0D
:10273800049C6FEA030B0AE0DDF828B03D463E46EC
:10274800049B049A5C1C312313700BF1010BB046F7
:102758000026F7E0089BCDF80C8023B9049CB1E073
:10276800069B022BD0DC002C05DD31462246504664
:1027780000F0F2FA06469FB17168504600F02FF952
:10278800326902320446920006F10C010C3000F066
:102798001BF901222146504600F0DEFA804600E08F
:1027A800B046009BDDF8109003F00103059329461D
:1027B8000298FFF7CDFA3146044600F13007029837
:1027C80000F01BFB424600902946504600F031FBC2
:1027D800C36802463BB901460790029800F00DFB1A
:1027E800079A034600E0012311465046079300F07C
:1027F8002BF9079B4BB9069A3AB9059A2AB9392F8A
:1028080028D0009B002B1ADC1BE0009A002A04DB6E
:102818001AD1069AC2B9059AB2B9002B11DD012264
:102828000299504600F098FA2946029000F0E5FA1D
:10283800002802DC05D1FA0703D5392F0AD004F1A4
:10284800310709F101040CE0002B09F101040BDD4B
:10285800392F05D1392389F8003009F1010954E0ED
:10286800013789F800706DE0049B039A04F8017C35
:10287800E31A9342A1463AD000230A22029950460D
:1028880000F0F9F8464502904FF000034FF00A02B5
:102898003146504604D100F0EEF80646804686E7F9
:1028A80000F0E9F84146064600230A22504600F0A7
:1028B800E2F880467BE700230A220299504600F09E
:1028C800DAF8029029460298FFF742FA00F1300739
:1028D80004F8017B049B039AE31A9342EBDB049B05
:1028E800012AACBF9B180133B04699460026012245
:1028F8000299504600F030FA2946029000F07DFA1D
:10290800002802DC15D1FB0713D54C4614F8013C0E
:10291800392B04F1FF3209D1049B934204D10BF106
:10292800010B3123049A02E01446EFE701331370D8
:1029380008E04C4614F8013C302B04F1FF3201D179
:102948001446F7E72946504600F07EF8B8F1000F24
:102958000DD02EB1464503D03146504600F074F8EC
:102968004146504600F070F801E0DDF828B00299C1
:10297800504600F069F80023109A23700BF1010308
:102988001360219B1BB11C6001E008480AE0049811
:1029980008E0039B002B3FF7E1AE069B022B7FF775
:1029A800DDAEB1E617B0BDE8F08F00BF42311008C8
:1029B8000048704774000010024B0146186800F088
:1029C800F3BA00BF7000001010B5431E0A449142CC
:1029D80004D011F8014B03F8014FF8E710BD70B5AA
:1029E800456A04460E463DB91020FFF7E5FF6062D0
:1029F800456085600560C560656AEB6843B1636AD8
:102A0800DB6853F8260078B1026843F8262017E0FF
:102A180021220421204600F0B9FA636AE860DB68E5
:102A2800002BECD1002070BD012101FA06F56A1DCA
:102A38009200204600F0AAFA0028F3D0466085608C
:102A480000230361C36070BD70B5446A06460D4635
:102A58003CB91020FFF7B0FF7062446084600460E6
:102A6800C4603DB1736A6A68DB6853F82210296054
:102A780043F8225070BD2DE9F0410D691F46064606
:102A88000C4601F1140E0023DEF8000081B202FBAF
:102A980001710F0C000C02FB007089B2013301EBCD
:102AA80000419D424FEA10474EF8041BECDCD7B1B9
:102AB800A3689D4212DB616830460131FFF78FFF42
:102AC8002269023204F10C01804692000C30FFF7B3
:102AD8007BFF21463046FFF7B7FF444604EB8503EA
:102AE80001355F6125612046BDE8F081030C1B04B8
:102AF80013B90004102300E0002310F07F4F04BF37
:102B08000002083310F0704F04BF0001043310F0C6
:102B1800404F04BF80000233002803DB420003D586
:102B2800581C70471846704720207047036813F0F8
:102B380007020BD0D90722D49A074BBF5B089B0822
:102B4800036003604CBF01200220704799B209B9A5
:102B58001B0C102213F0FF0F04BF1B0A08321907C1
:102B680004BF1B090432990704BF9B080232D90726
:102B780002D45B0805D0013203601046704700207C
:102B880070472020704710B50C460121FFF727FF3A
:102B980001224461026110BD2DE9F74F14460A690C
:102BA80023699A42B8BF0B468846BCBFA0461C465C
:102BB800D8F81070D4F81090D8F80830D8F8041065
:102BC80007EB09069E42C8BF0131FFF708FF00F175
:102BD800140505EB860C2B460022634502D243F808
:102BE800042BFAE704F1140208F1140102EB89033B
:102BF80001EB87070093009B0192934257D9B2F8E3
:102C080000B0BBF1000F23D08946AE464FF0000854
:102C180059F8044BBEF800A0A3B20BFB03A34FEA7C
:102C2800144ADEF8004043444FEA14480BFB0A8478
:102C380004EB1344F2469BB243EA04434F454FEA80
:102C480014484AF8043B01D9D646E1E7CEF8048097
:102C5800019BB3F802A00432BAF1000F21D02B680F
:102C68002C4689464FF00008B9F800E0B4F802B0E5
:102C78000AFB0EBEF044A3469BB243EA08434BF856
:102C8800043B59F8043BB4F804E01B0C0AFB03E3CB
:102C980003EB18434F454FEA134801D95C46E3E775
:102CA80063600435A7E75CF8043D13B9013E002EC4
:102CB800F9DC066103B0BDE8F08F00002DE9F843A8
:102CC800154612F0030206460F4607D0013A214C7A
:102CD800002354F82220FFF7CEFE0746AD1036D069
:102CE800746A3CB91020FFF767FE70624460846024
:102CF8000460C460D6F82480D8F808404CB940F283
:102D080071213046FFF73FFF0023C8F8080004464A
:102D180003604FF00008EB070AD5394622463046D3
:102D2800FFF73AFF394681463046FFF78DFE4F469A
:102D38006D100CD0206808B10446ECE72246214605
:102D48003046FFF729FF2060C0F80080F4E73846D6
:102D5800BDE8F8835C3110082DE9F0470C464FEACE
:102D6800621A26694968A368564407469146751C45
:102D7800AB4202DA01315B00FAE73846FFF72FFE73
:102D88000023804600F114011A46534503DA41F83E
:102D980023200133F9E72AEAEA73206901EB830368
:102DA80019F01F0904F1140101EB800E14D0C9F1C8
:102DB800200C0022086800FA09F002439A4643F8FA
:102DC800042B51F8042B8E4522FA0CF2F2D8CAF8DB
:102DD800042042B1B51C06E0043B51F8042B43F82B
:102DE800042F8E45F9D8013D3846C8F810502146C1
:102DF800FFF72AFE4046BDE8F08703690A699B1A77
:102E080010B511D192001430143183180A4453F8C4
:102E1800044D52F8041D8C4202D007D3012010BD86
:102E28009842F4D3002010BD184610BD4FF0FF3073
:102E380010BD2DE9F8430C460746114620461546B5
:102E4800FFF7DBFF061E08D131463846FFF7C7FDFE
:102E5800012303614661BDE8F883BCBF23462C46C5
:102E680038466168BABF1D4601260026FFF7B7FD40
:102E78002B69C660266905F11409143404EB86072A
:102E880009EB830800F114054FF0000C54F8043BDB
:102E980059F8042B1CFA83F11FFA82FE120CCEEBB0
:102EA8000101C2EB134303EB214389B24FEA234CE0
:102EB800C84541EA0343A64645F8043BE6D8BE4563
:102EC8000ED25EF8041B1CFA81F2131403EB1143B3
:102ED80092B242EA03424FEA234C45F8042BEEE74C
:102EE80055F8043D0BB9013EFAE70661BDE8F883E1
:102EF8002DE9F7430E46012159EC108B1546FFF7D3
:102F08006EFDC9F30A540746C9F313030CB143F421
:102F180080130193B8F1000F19D002A840F8088D6A
:102F2800FFF704FE009B48B1019AC0F1200102FAA4
:102F380001F10B43C2407B61019200E07B61019B80
:102F4800BB61002B14BF02210121396107E001A8F0
:102F5800FFF7ECFD019B7B6101213961203034B121
:102F6800A4F2334404443460C0F1350009E007EBAF
:102F78008103A0F2324030601869FFF7B7FDC0EB5B
:102F880041102860384603B0BDE8F08338B502FB2D
:102F980001F4214600F008F8054618B12246002140
:102FA800FEF786FB284638BD70B5CD1C25F0030515
:102FB80008350C2D38BF0C25002D064601DBA9422B
:102FC80002D90C23336046E000F05CF8234B1C6800
:102FD8001A462146A1B10B685B1B0ED40B2B03D9F3
:102FE8000B60CC18CD501EE08C420DBF63684B6857
:102FF8006360136018BF0C4615E00C464968E9E7A2
:10300800174C23681BB9304600F02CF8206029467D
:10301800304600F027F8431C18D0C41C24F00304E1
:10302800A0420DD12560304600F02DF804F10B00C8
:10303800231D20F00700C31A0ED05A42E25070BD7B
:10304800211A304600F00EF80130EBD10C23336022
:10305800304600F018F8002070BD00BFD000001006
:10306800CC00001038B5064C0023054608462360FE
:10307800FDF778FE431C02D1236803B12B6038BDED
:10308800D800001070477047F8B500BFF8BC08BCFE
:103098009E467047F8B500BFF8BC08BC9E4670470E
:1030A8007372632F647269766572732F53544D334C
:1030B80032483778785F48414C5F44726976657268
:1030C8002F7372632F73746D3332683778785F6843
:1030D800616C5F7077725F65782E63007372632F1F
:1030E800647269766572732F53544D33324837785A
:1030F800785F48414C5F4472697665722F737263DA
:103108002F73746D3332683778785F68616C5F63EA
:103118006F727465782E63000000000001020304DA
:1031280001020304060708094300494E4600696E78
:1031380066004E414E006E616E003000496E666951
:103148006E697479004E614E00504F534958002EF5
:103158000000000005000000190000007D000000CC
:103168000080E03779C34143176E05B5B5B893467B
:10317800F5F93FE9034F384D321D30F94877825A47
:103188003CBF737FDD4F1575000000000000F03F65
:10319800000000000000244000000000000059402A
:1031A8000000000000408F40000000000088C3407D
:1031B80000000000006AF8400000000080842E41F2
:1031C80000000000D01263410000000084D797413E
:1031D8000000000065CDCD41000000205FA0024244
:1031E800000000E876483742000000A2941A6D42B9
:1031F800000040E59C30A2420000901EC4BCD642AC
:1032080000003426F56B0C430080E03779C3414356
:1032180000A0D8855734764300C84E676DC1AB43CC
:10322800003D9160E458E143408CB5781DAF1544EA
:1032380050EFE2D6E41A4B4492D54D06CFF08044C5
:10324800F64AE1C7022DB544B49DD9794378EA44DA
:04325800BD0210089B
:04325C0099021008BB
:103260000090D0030090D003100000000100000087
:10327000000000000000000000000000000000004E
:10328000000000000000000000000000000000003E
:1032900030311008000000000000000000000000B5
:1032A000000000000000000000000000000000001E
:1032B000000000000000000000000000000000000E
:1032C00000000000000000000000000000000000FE
:1032D00010000010573110085831100858311008EC
:1032E000583110085831100858311008583110085A
:1032F000583110085831100858311008FFFFFFFFEF
:0C330000FFFFFFFFFFFFFFFFFFFF0000CB
:0400000508101605C4
:00000001FF
